:0400000057EF00F0C6
:10000800FACF01F0FBCF02F0E9CF03F0FFEF04F0E5
:10001800D8CF0FF0E8CF10F0E0CF11F0FACF12F000
:10002800FBCF13F0E9CF14F0EACF15F0E1CF16F0CB
:10003800E2CF17F0D9CF18F0DACF19F0F3CF1AF0D2
:10004800F4CF1BF0F6CF1CF0F7CF1DF0F8CF1EF061
:10005800F5CF1FF09EBA9DAA03D0AECF20F000D0F6
:100068001FC0F5FF1EC0F8FF1DC0F7FF1CC0F6FF3C
:100078001BC0F4FF1AC0F3FF19C0DAFF18C0D9FF7C
:1000880017C0E2FF16C0E1FF15C0EAFF14C0E9FF80
:1000980013C0FBFF12C0FAFF11C0E0FF10C0E8FF59
:0A00A8000FC0D8FF1000E8EF05F0CC
:100300000076312E30000000000E216E100E226E9D
:100310000E0E236E000E246E25EC03F059EC06F051
:1003200056EC06F042EC06F0000E0001BE6F180E0F
:10033000BD6F000E0001C06F1A0EBF6FF3EC03F02B
:100340005DEC06F0B5EC05F0030E226E216851EC71
:1003500006F0030E226E21684CEC06F05BEC06F012
:10036000000E216E000E236E2268180ED2EC05F0EE
:10037000600E286E000E296E010EF66E030EF76EEB
:100380000800F5CF2AF025EC06F0600E286E000E6E
:10039000296E020EF66E030EF76E0800F5CF2AF0F6
:1003A00025EC06F0600E286E000E296E030EF66E28
:1003B000030EF76E0800F5CF2AF025EC06F0600E6C
:1003C000286E000E296E040EF66E030EF76E0800FE
:1003D000F5CF2AF025EC06F0600E296E000E2A6E8D
:1003E00083EC04F0000E226E640E216EFDEC05F02D
:1003F000870E286E000E296E010EF66E030EF76E44
:100400000800F5CF2AF025EC06F0870E286E000EC6
:10041000296E020EF66E030EF76E0800F5CF2AF075
:1004200025EC06F0870E296E000E2A6E83EC04F090
:10043000D08EF28EF28C000E226E010E216EFDEC3B
:1004400005F0FFD757EF00F03DC0AEF00001AF6BF5
:10045000B06B3C340001AE3701E3AF810001AE5117
:100460000001B86F0001B851D8A402D04AD07BD0A7
:10047000170E0001AE6F3BC0AFF03CC0B0F03DC006
:10048000B1F00001AE290001B26F05D00001D89093
:10049000B133B033AF330001B22FF8D70001AF5101
:1004A0000001B36F3C8EFF0E3B16FF0E3C16000E94
:1004B0003D163B500001B46F3C500001B56F3D50FC
:1004C0000001B66F0001B76B8E0E0001B85F00012E
:1004D000B8AF13D00001B851800A8F0FD8B003D045
:1004E00010D041D000D00001D890B733B633B53327
:1004F000B4330001B83FF7D71ED0170E0001B8651E
:1005000013D0000E3B6E000E3C6E000E3D6E000ED2
:100510003E6E29D009D00001D890B437B537B63730
:10052000B7370001B80700D00001B8510001D8B4B6
:1005300002D0F1D700D00001B3510001D8B40AD0E5
:100540000001B71FB61FB51FB46D000EB523B6234B
:10055000B72300D0B4C03BF0B5C03CF0B6C03DF00E
:10056000B7C03EF000D012002EC032F0336A346AB9
:100570002D34323601E333803250396E3950D8A4ED
:1005800002D00ED061D031C032F0336A346A3034D8
:10059000323601E3338032503A6E3A50D8A407D055
:1005A000000E2C6E000E2D6E000E2E6E4DD0000E25
:1005B000366E000E376E000E386E3A50890F395E77
:1005C0002EC03AF031503A1A800E3A162D8EFF0E98
:1005D0002C16FF0E2D16000E2E16308EFF0E2F1627
:1005E000FF0E3016000E3116180E356E00D0D89062
:1005F0003636373638362F502C5C30502D58315027
:100600002E58D8A007D02F502C5E30502D5A315084
:100610002E5A3680D8902C362D362E36352EE7D7EA
:1006200000D036C021F037C022F038C023F039C0E6
:1006300024F03AC025F090EC03F021C02CF022C049
:100640002DF023C02EF000D01200948C948E95983B
:100650008398260EAC6ED00EAB6EAA86AA92AA9094
:1006600015D0040E2A6E100E0FD0020E2A6E080E40
:100670000BD0000E2A6EAC0E07D0000E2A6E560E5E
:1006800003D0000E2A6E0A0E296E43D021C025F039
:1006900022C026F023C027F024C028F02850000AEA
:1006A000D8B42DD036D02650250AD8B407D06E0A3B
:1006B000D8B409D0AA0AD8B40BD02BD02550800AC0
:1006C000D8B4CFD726D02550000AD8B4CED721D061
:1006D0002550000AD8B4CDD71CD02650C20AD8A4C1
:1006E00018D02550000AD8B4C8D713D02650100A05
:1006F000D8A40FD02550000AD8B4C3D70AD02750A9
:10070000000AD8B4D0D7010AD8B4E7D70F0AD8B4B2
:10071000EDD729C0AFFF2A50B06E9F9A9D8A120074
:100720002450D8B405D0215022102310D8A40ED0C4
:10073000000E216E000E226E000E236E53D006D0E6
:10074000242AD89023322232213200D0000E2114E4
:10075000266E000E2214276EFE0E2314286E2650DD
:1007600027102810D8B40ED0EBD70CD0242A010EB5
:100770002126000E2222000E2322D890233222327C
:10078000213200D0000E2114266E000E2214276E96
:10079000FF0E2314286E265027102810D8B408D036
:1007A000E5D706D02406D89021362236233600D04D
:1007B00022BE04D0020E2460F5D700D024B002D0AF
:1007C000229E00D0D8902432245023122550D8B431
:1007D00002D0238E00D021C021F022C022F023C0FD
:1007E00023F000D012000001BF510001BD5D0001E7
:1007F000C0510001BE59D8B03FD001D03DD0BFC0DC
:1008000029F0C0C02AF012EC06F029C02CF02AC052
:100810002DF02BC02EF0000E2F6E000E306E440E09
:10082000316EB4EC02F02CC0C1F02DC0C2F02EC06D
:10083000C3F0C1C02FF0C2C030F0C3C031F0BDC0A2
:1008400029F0BEC02AF012EC06F029C02CF02AC014
:100850002DF02BC02EF0B4EC02F02CC03BF02DC0DC
:100860003CF02EC03DF024EC02F03BC0B9F03CC09F
:10087000BAF032EC05F000D0120020EE22F0215048
:10088000D9262250DA2210EE20F02150E126225003
:10089000E222DE50E61806E1DE50E618D8A402D0C7
:1008A000FF0E30D020EE22F02150D9262250DA223D
:1008B000DECF23F0DDCF24F023502124D96E245045
:1008C0002220DA6EDF50276E20EE22F02150D9264A
:1008D0002250DA22DECF23F0DDCF24F0010E2326D2
:1008E000000E24221F0E2316000E241620EE22F0E6
:1008F0002150D9262250DA2223C0DEFF24C0DDFF9A
:10090000275000D01200020E2924216E000E2A204A
:10091000226E64EC05F02B6E20EE26F02950D926CD
:100920002A50DA222BC0DFFF29C0D9FF2AC0DAFF04
:10093000DF5036EC06F012D0020E2924216E000E94
:100940002A20226E3DEC04F036EC06F020EE01F099
:100950002950D9262A50DA22DF0600D020EE01F0F5
:100960002950D9262A50DA22DF50D8A4E5D720EE24
:1009700026F02950D9262A50DA22DF5036EC06F02C
:100980001200256E20EE20F02150D9262250DA22C6
:10099000DECF23F0DDCF24F0010E2326000E24222B
:1009A0001F0E2314266E276A20EE22F02150D9262E
:1009B0002250DA222650DE1804E12750DE18D8B47F
:1009C0001DD020EE20F02150D9262250DA22DECF91
:1009D00023F0DDCF24F023502124D96E245022208F
:1009E000DA6E25C0DFFF20EE20F02150D9262250FC
:1009F000DA2226C0DEFF27C0DDFF00D01200EACFDA
:100A000004F0E1CF05F0E2CF06F0D9CF07F0DACF5E
:100A100008F0F3CF09F0F4CF0AF0F6CF0BF0F7CFE0
:100A20000CF0F8CF0DF0F5CF0EF00EC0F5FF0DC0B5
:100A3000F8FF0CC0F7FF0BC0F6FF0AC0F4FF09C0B7
:100A4000F3FF08C0DAFF07C0D9FF06C0E2FF05C008
:100A5000E1FF04C0EAFF03C0E9FF02C0FBFF01C0E1
:100A6000FAFF1100B9C0BBF0010E0001BB17000175
:100A7000BB3BBD500001BB19EF0BBB19BD6ED8903D
:100A80000001BA310001BC6F0001B9310001BB6F38
:100A9000010E0001BB170001BB3BBB47BD5000016D
:100AA000BB19DF0BBB19BD6EB9C0BBF0BAC0BCF03F
:100AB0000001D890BC33BB330001D890BC33BB33AA
:100AC0000001BB51BE6E1200000E286E20EE22F017
:100AD0002150D9262250DA22DF50276E0DD0275020
:100AE000010DF3502124D96EF4502220DA6EDF502C
:100AF0002818286E272A00D020EE20F02150D92671
:100B00002250DA222750256E266ADE50255CDE5000
:100B10002658D8A0E4D7285000D012007800000052
:100B200000000000000000000000000000000000C5
:100B300000000000000000000000000000000000B5
:100B40000000008200000000000000000000000023
:100B50000000000000000000000000000000000095
:100B600000000000000000000000000E936E959E43
:100B7000839E020E7F6E300E6F6E000E6E6E6B687F
:100B8000000E6A6E000E6C6E000E7B6E020E7A6EA8
:100B9000280E6D6E030E786E7968030E766E776898
:100BA0007E8E1200246EB850C00BB86E000EB96E67
:100BB00092849286928824C0B6FF21C060FF22C032
:100BC00064FF2350656E000E676E000E666E1200A5
:100BD0001C0EF66E0B0EF76E000EF86E00EE60F057
:100BE00010EE4EF00900F5CFEEFFE550E150FAE1CE
:100BF000000EF86E000184EF01F0000E256E000E6D
:100C0000246E09D00D0E236EFC0EE82EFED7232E87
:100C1000FCD7244A252A2150245C22502558D8A0EC
:100C2000F1D7120029C021F02AC022F0236A8E0ECB
:100C3000246E000E256E90EC03F021C029F022C036
:100C40002AF023C02BF000D01200020E2824216EBF
:100C5000000E2920226E2A50C1EC04F020EE01F093
:100C60002850D9262950DA22DF2A1200216E00D01E
:100C7000ACA2FED7838821C0ADFF00D0ACA2FED7C6
:100C80008398120094847F0ECB6E0C0EBD6E000E06
:100C9000BE6E050ECA6E120021C079FF2250786E1A
:100CA000120021C079FF2250786E1200958A958C2F
:0E0CB0001200AB961200839E12009484120074
:020000040020DA
:08000000FFFFFFFFFFFFFFFF00
:020000040030CA
:0E000000FFC60C3E3C9981FF0FC00FE00F4081
:00000001FF
