:0400000031EF00F0EC
:0400080057EF02F0BC
:10001800D8CF02F0E8CF03F0E0CF04F09EBA9DAA53
:1000280015D0AE5045EC02F004E3590E33EC02F063
:1000380003D04E0E33EC02F03DEC02F004E3590E0F
:1000480033EC02F003D04E0E33EC02F004C0E0FFB4
:1000580003C0E8FF02C0D8FF10004DEF02F021C036
:1000680023F0246A256A2034233601E324802350B0
:100078002D6E2D5005E11F6A206A216A226A4AD036
:10008800170E236E1FC024F020C025F021C026F0D3
:100098002328276E04D0D890263225322432272EE2
:1000A800FAD72450286E208E216A1F50296E2050BE
:1000B8002A6E21502B6E2C6A8E0E2D5E2DAE0CD022
:1000C8002D50800A8F0FD7E3D8902C322B322A324A
:1000D80029322D3EF9D70CD0170E2D6407D0CBD777
:1000E800D89029362A362B362C362D062D50F8E195
:1000F800285008E02C1E2B1E2A1E296C000E2A22CE
:100108002B222C2229C01FF02AC020F02BC021F05E
:100118002CC022F0120012C016F0176A186A1134A7
:10012800163601E3178016501D6E1D500CE015C0E1
:1001380016F0176A186A1434163601E31780165039
:100148001E6E1E5004E1106A116A126A3CD01A6AC7
:100158001B6A1C6A1E50890F1D5E12C01EF01550C6
:100168001E1A800E1E16118E126A148E156A180E2B
:10017800196ED8901A361B361C361350105C145062
:1001880011581550125807E31350105E1450115AA5
:100198001550125A1A80D890103611361236192E68
:1001A800E8D71AC005F01BC006F01CC007F01DC038
:1001B80008F01EC009F03CEC01F005C010F006C0C4
:1001C80011F007C012F01200948C948E95988398C1
:1001D800260EAC6ED00EAB6EAA86AA92AA9012D04A
:1001E800040E0E6E100E0CD0020E0E6E080E08D005
:1001F8000E6AAC0E05D00E6A560E02D00E6A0A0EB2
:100208000D6E2FD005C009F006C00AF007C00BF02C
:1002180008C00CF00C501FE024D00A50250A05E055
:100228006E0A07E0AA0A08E01CD00950800AD8E044
:1002380018D00950D9E015D00950DAE012D00A5088
:10024800C20A0FE10950D7E00CD00A50100A09E1A0
:100258000950D4E006D00B50E0E0010AF0E00F0AA4
:10026800F4E00DC0AFFF0EC0B0FF9F9A9D8A120048
:10027800085004E005500610071009E1056A066AEF
:10028800076A3AD0082AD8900732063205320A6A35
:100298000B6AFE0E07140C6E0A500B100C100AE0C5
:1002A800F1D7082A052A000E06220722D89007321D
:1002B800063205320A6A0B6A07500C6E0A500B1098
:1002C8000C1006E0EED70806D89005360636073635
:1002D80006BE03D0020E0860F6D708A0069ED89086
:1002E8000832085007120950D8A4078E05C005F037
:1002F80006C006F007C007F012003450325C3550D3
:1003080033583AE234C00DF035C00EF017EC02F065
:100318000DC010F00EC011F00FC012F0136A146A6D
:10032800440E156E8FEC00F010C036F011C037F097
:1003380012C038F036C013F037C014F038C015F0CA
:1003480032C00DF033C00EF017EC02F00DC010F003
:100358000EC011F00FC012F08FEC00F010C01FF0AB
:1003680011C020F012C021F033EC00F01FC02EF0B5
:1003780020C02FF0C1EC01F012002EC030F0010EA9
:100388003016303ABD503018EF0B3018BD6E2EC005
:1003980030F0D8903032010E3016303A3046BD5029
:1003A8003018DF0B3018BD6E2EC030F02FC031F082
:1003B800D89031323032D890313230323050BE6E2F
:1003C8001200056A100E066E0E0E076E086AE8EC3B
:1003D80000F055EC02F052EC02F029EC02F0336A1E
:1003E800180E326E356A1A0E346E81EC01F0D08E1A
:1003F800F28EF28C066A010E056E04EC02F0FFD74D
:10040800086A096A09D00D0E076EFC0EE82EFED7A1
:10041800072EFCD7084A092A0550085C06500958D7
:10042800D8B01200F0D70DC005F00EC006F0076A6C
:100438008E0E086E000E096E3CEC01F005C00DF042
:1004480006C00EF007C00FF0120094847F0ECB6E2A
:100458000C0EBD6EBE6A050ECA6E94941200016E33
:10046800ACA2FED7838801C0ADFFACA2FED78398AB
:10047800120083AC03D0016A012A01D0016A01305D
:10048800120083AA03D0016A012A01D0016A01304F
:100498001200000EF86E0001E5EF01F0958A958CC8
:0804A8001200AB9612001100D6
:020000040020DA
:08000000FFFFFFFFFFFFFFFF00
:020000040030CA
:0E000000FFC60C3E3C9981FF0FC00FE00F4081
:00000001FF
