:040000003FEF00F0DE
:04000800EFEF02F024
:10001800D8CF07F0E8CF08F0E0CF09F0D9CF0AF041
:10002800DACF0BF09EBA9DAA1BD0AECF0CF0840E8F
:10003800016E0C5006EC02F0D2EC02F004E3590E0B
:10004800B7EC02F003D04E0EB7EC02F0CAEC02F0A7
:1000580004E3590EB7EC02F003D04E0EB7EC02F0F1
:100068000BC0DAFF0AC0D9FF09C0E0FF08C0E8FFEB
:1000780007C0D8FF1000ACEF02F029C02BF02C6AA3
:100088002D6A28342B3601E32C802B50356E3550E1
:1000980005E1276A286A296A2A6A4AD0170E2B6E50
:1000A80027C02CF028C02DF029C02EF02B282F6E49
:1000B80004D0D8902E322D322C322F2EFAD72C5035
:1000C800306E288E296A2750316E2850326E29509A
:1000D800336E346A8E0E355E35AE0CD03550800ADC
:1000E8008F0FD7E3D8903432333232323132353E43
:1000F800F9D70CD0170E356407D0CBD7D890313646
:1001080032363336343635063550F8E1305008E0AB
:10011800341E331E321E316C000E3222332234223A
:1001280031C027F032C028F033C029F034C02AF09B
:1001380012001AC01EF01F6A206A19341E3601E325
:100148001F801E50256E25500CE01DC01EF01F6A32
:10015800206A1C341E3601E31F801E50266E26506E
:1001680004E1186A196A1A6A3CD0226A236A246A66
:100178002650890F255E1AC026F01D50261A800EBB
:100188002616198E1A6A1C8E1D6A180E216ED890B2
:100198002236233624361B50185C1C5019581D5023
:1001A8001A5807E31B50185E1C50195A1D501A5A4A
:1001B8002280D890183619361A36212EE8D722C050
:1001C8000DF023C00EF024C00FF025C010F026C09B
:1001D80011F04AEC01F00DC018F00EC019F00FC074
:1001E8001AF01200948C948E95988398260EAC6E13
:1001F800D00EAB6EAA86AA92AA9012D0040E166EE2
:10020800100E0CD0020E166E080E08D0166AAC0E30
:1002180005D0166A560E02D0166A0A0E156E2FD031
:100228000DC011F00EC012F00FC013F010C014F082
:1002380014501FE024D01250250A05E06E0A07E08A
:10024800AA0A08E01CD01150800AD8E018D0115032
:10025800D9E015D01150DAE012D01250C20A0FE1DD
:100268001150D7E00CD01250100A09E11150D4E017
:1002780006D01350E0E0010AF0E00F0AF4E015C0E0
:10028800AFFF16C0B0FF9F9A9D8A1200105004E07D
:100298000D500E100F1009E10D6A0E6A0F6A3AD060
:1002A800102AD8900F320E320D32126A136AFE0EDF
:1002B8000F14146E1250131014100AE0F1D7102AFC
:1002C8000D2A000E0E220F22D8900F320E320D3258
:1002D800126A136A0F50146E12501310141006E0AD
:1002E800EED71006D8900D360E360F360EBE03D058
:1002F800020E1060F6D710A00E9ED8901032105043
:100308000F121150D8A40F8E0DC00DF00EC00EF0B4
:100318000FC00FF012003C503A5C3D503B583AE297
:100328003CC015F03DC016F088EC02F015C018F07E
:1003380016C019F017C01AF01B6A1C6A440E1D6E0D
:100348009DEC00F018C03EF019C03FF01AC040F014
:100358003EC01BF03FC01CF040C01DF03AC015F075
:100368003BC016F088EC02F015C018F016C019F062
:1003780017C01AF09DEC00F018C027F019C028F03B
:100388001AC029F041EC00F027C036F028C037F039
:1003980039EC02F012000D6A100E0E6E0E0E0F6E82
:1003A800106AF6EC00F0E7EC02F0E4EC02F0C1ECC5
:1003B80002F03B6A180E3A6E3D6A1A0E3C6E8FECDC
:1003C80001F0EDEC02F05DEC02F0030E0E6E0D682C
:1003D800DFEC02F0030E0E6E0D68DAEC02F0E9ECC9
:1003E80002F00D6A0F6A0E68180E9AEC02F0EBEC38
:1003F80002F0D08EF28EF28C0E6A010E0D6E75EC44
:1004080002F0FFD7046E0150D96EDA6A200ED926A1
:10041800DECF02F0DDCF03F0022A000E03221F0E0A
:100428000214056E066A0150D96EDA6A220ED926C0
:100438000550DE1803E10650DE1816E00150D96EAB
:10044800DA6A200ED926DF50026E01500224D96ED6
:10045800DA6A04C0DFFF0150D96EDA6A200ED926A5
:1004680005C0DEFF06C0DDFF120036C038F0010E01
:100478003816383ABD503818EF0B3818BD6E36C0EC
:1004880038F0D8903832010E3816383A3846BD5010
:100498003818DF0B3818BD6E36C038F037C039F061
:1004A800D89039323832D890393238323850BE6E16
:1004B8001200936A959E839E020E7F6E300E6F6EB9
:1004C8006E6A6B686A6A6C6A7B6A020E7A6E280EBC
:1004D8006D6E030E786E7968030E766E77687E8E81
:1004E8001200106A116A09D00D0E0F6EFC0EE82E6C
:1004F800FED70F2EFCD7104A112A0D50105C0E5053
:100508001158D8B01200F0D715C00DF016C00EF073
:100518000F6A8E0E106E000E116E4AEC01F00DC0BF
:1005280015F00EC016F00FC017F01200106EC00EB6
:10053800B816B96A92849286928810C0B6FF0DC028
:1005480060FF0EC064FF0FC065FF676A666A12002D
:1005580000EE60F0480EEE6AE806FDE1000EF86E67
:100568000001CFEF01F0016EACA2FED7838801C075
:10057800ADFFACA2FED78398120094847F0ECB6E99
:100588000C0EBD6EBE6A050ECA6E120083AC03D097
:10059800016A012A01D0016A0130120083AA03D03E
:1005A800016A012A01D0016A013012000DC079FFE9
:1005B8000EC078FF12000DC079FF0EC078FF120040
:1005C800958A958C1200AB961200839E1200949423
:0805D8001200948412001100CE
:020000040020DA
:08000000FFFFFFFFFFFFFFFF00
:020000040030CA
:0E000000FFC60C3E3C9981FF0FC00FE00F4081
:00000001FF
