:04000000B9EF00F064
:10000800FACF28F0FBCF29F0E9CF2AF0BEEF05F0B0
:10001800D8CF66F0E8CF67F0E0CF68F0FACF69F0A4
:10002800FBCF6AF0E9CF6BF0EACF6CF0E1CF6DF06F
:10003800E2CF6EF0D9CF6FF0DACF70F0F3CF71F076
:10004800F4CF72F0F6CF73F0F7CF74F0F8CF75F005
:10005800F5CF76F09EAA66D09DBA56D063D054D01C
:10006800010E366E000E376E8FEC07F0AE18D8A46E
:1000780059D0ABEC07F0010E04D054D0AECF44F009
:10008800020E456E4FD0010E366E000E376E86ECAE
:1000980007F00001606F616BFF0E0001626FFF0ED9
:1000A8000001636F44500001646F656B0001625189
:1000B80000016427000163510001652300016051BC
:1000C8000001641909E10001615100016519D8A412
:1000D80003D0030E456E00D0010E3D6E000E3E6E3D
:1000E800AECF3FF05FEC07F01DD0010E3E6E000E64
:1000F8003F6EC3EC06F0AE18D8A414D0000E456EBF
:100108004680ADEC07F00ED04550000AD8B4A8D709
:10011800010AD8B4B3D7030AD8B4B5D7010AD8B4FA
:10012800E4D700D076C0F5FF75C0F8FF74C0F7FFBC
:1001380073C0F6FF72C0F4FF71C0F3FF70C0DAFF3E
:100148006FC0D9FF6EC0E2FF6DC0E1FF6CC0EAFF6F
:100158006BC0E9FF6AC0FBFF69C0FAFF68C0E0FF37
:0E01680067C0E8FF66C0D8FF10007EEF06F00B
:100300000076312E3000000081C085F00001866B40
:10031000876B000180350001853701E3868100018C
:10032000855100018C6F00018C51D8A402D014D0EB
:100330008BD084C085F00001866B876B000183350C
:100340000001853701E386810001855100018D6F31
:1003500000018D51D8A40AD0000E00017F6F000E5D
:100360000001806F000E0001816F6ED0000E000151
:10037000896F000E00018A6F000E00018B6F000173
:100380008D51890F00018C5F81C08DF00001845177
:1003900000018D1B800E00018D170001808FFF0E64
:1003A00000017F17FF0E00018017000E000181176A
:1003B0000001838FFF0E00018217FF0E00018317DB
:1003C000000E00018417180E0001886F00D0000194
:1003D000D89089378A378B370001825100017F5DC1
:1003E00000018351000180590001845100018159AD
:1003F000D8A00ED00001825100017F5F000183511F
:100400000001805B000184510001815B0001898152
:100410000001D8907F37803781370001882FD7D7E8
:1004200000D089C077F08AC078F08BC079F08CC09A
:100430007AF08DC07BF056EC03F077C07FF078C087
:1004400080F079C081F000D0120090C092F00001DD
:10045000936B946B00018F350001923701E3938118
:100460000001925100019C6F00019C51D8A402D060
:1004700051D083D0170E0001926F8EC093F08FC0C1
:1004800094F090C095F0000192290001966F05D07C
:100490000001D8909533943393330001962FF8D709
:1004A000000193510001976F00018F8FFF0E000133
:1004B0008E17FF0E00018F17000E0001901700012C
:1004C0008E510001986F00018F510001996F00015A
:1004D000905100019A6F00019B6B8E0E00019C5F92
:1004E00000019CAF13D000019C51800A8F0FD8B03F
:1004F00003D010D042D000D00001D8909B339A3363
:100500009933983300019C3FF7D71FD0170E000195
:100510009C6514D0000E00018E6F000E8F6F000ED0
:10052000906F000E916F29D009D00001D8909837B4
:1005300099379A379B3700019C0700D000019C51E6
:100540000001D8B402D0F1D700D0000197510001CA
:10055000D8B40AD000019B1F9A1F991F986D000EF6
:1005600099239A239B2300D098C08EF099C08FF0D6
:100570009AC090F09BC091F000D01200000E0001D4
:10058000776FC20E786F010E796F000E7A6FDAEC1A
:1005900003F0A5EC07F0A2EC07F07CEC07F0000EEE
:1005A0000001A26F180EA16F000E0001A46F1A0EB9
:1005B000A36FA0EC04F0A9EC07F0A6EC06F0030E84
:1005C0000001786F77699CEC07F0030E0001786FEB
:1005D000776996EC07F0A7EC07F0000E0001776F43
:1005E000000E0001796F7869180E0BEC07F0A80E69
:1005F00000017C6F000E00017D6F010EF66E030E90
:10060000F76E0800F5CF7EF0F4EC06F0A80E0001BE
:100610007C6F000E00017D6F020EF66E030EF76E0A
:100620000800F5CF7EF0F4EC06F0A80E00017C6F18
:10063000000E00017D6F030EF66E030EF76E0800CC
:10064000F5CF7EF0F4EC06F0A80E00017C6F000EF2
:1006500000017D6F040EF66E030EF76E0800F5CFF5
:100660007EF0F4EC06F0A80E00017D6F000E000194
:100670007E6FEDEC04F0000E0001786F640E776F72
:10068000DDEC06F0D08EF28EF28C000E0001786F59
:10069000010E776FDDEC06F000D046A0FED7590EB4
:1006A00070EC07F04690F9D7B9EF00F000017A51ED
:1006B0000001D8B408D00001775100017811000181
:1006C0007911D8A413D0000E0001776F000E00013D
:1006D000786F000E0001796F6CD008D000017A2B82
:1006E0000001D89079337833773300D0000E0001C1
:1006F0007715416E000E00017815426EFE0E000166
:100700007915436E415042104310D8B413D0E6D748
:1007100011D000017A2B010E00017727000E000195
:100720007823000E000179230001D89079337833C3
:10073000773300D0000E00017715416E000E0001E6
:100740007815426EFF0E00017915436E415042103C
:100750004310D8B40AD0DDD708D000017A070001D1
:10076000D89077377837793700D0000178BF05D037
:10077000020E00017A61F1D700D000017AB103D0F6
:100780000001789F00D00001D8907A3300017A519F
:100790000001791300017B510001D8B403D000019E
:1007A000798F00D077C077F078C078F079C079F091
:1007B00000D01200948C948E95988398260EAC6E7F
:1007C000D00EAB6EAA86AA92AA9015D0040E426EE5
:1007D000100E0FD0020E426E080E0BD0000E426EAD
:1007E000AC0E07D0000E426E560E03D0000E426EC5
:1007F0000A0E416E4DD077C07BF078C07CF079C096
:100800007DF07AC07EF000017E51000AD8B435D068
:100810003FD000017C51250AD8B407D06E0AD8B465
:100820000AD0AA0AD8B40DD033D000017B51800A77
:10083000D8B4CCD72DD000017B51000AD8B4CAD788
:1008400027D000017B51000AD8B4C8D721D00001BD
:100850007C51C20AD8A41CD000017B51000AD8B434
:10086000C1D716D000017C51100AD8A411D00001C4
:100870007B51000AD8B4BAD70BD000017D51000AD1
:10088000D8B4C7D7010AD8B4E2D70F0AD8B4EAD788
:1008900041C0AFFF4250B06E9F9A9D8A1200000186
:1008A00020EE22F07751D9267851DA22000110EE9D
:1008B00020F07751E1267851E222DE50E61806E179
:1008C000DE50E618D8A402D0FF0E39D0000120EE89
:1008D00022F07751D9267851DA22DECF79F0DDCFB8
:1008E0007AF00001795100017725D96E00017A5123
:1008F00000017821DA6EDF50416E000120EE22F017
:100900007751D9267851DA22DECF79F0DDCF7AF02F
:10091000010E00017927000E7A231F0E00017917BE
:10092000000E7A17000120EE22F07751D926785177
:10093000DA2279C0DEFF7AC0DDFF415000D012001C
:100940000001A3510001A15D0001A4510001A259C1
:10095000D8B042D001D040D0A3C07CF0A4C07DF07C
:1009600022EC07F07CC07FF07DC080F07EC081F07B
:10097000000E0001826F000E0001836F440E000123
:10098000846F84EC01F07FC0A5F080C0A6F081C028
:10099000A7F0A5C082F0A6C083F0A7C084F0A1C0D4
:1009A0007CF0A2C07DF022EC07F07CC07FF07DC01F
:1009B00080F07EC081F084EC01F07FC08EF080C0BA
:1009C0008FF081C090F025EC02F08EC09DF08FC0BA
:1009D0009EF0F1EC05F000D01200020E00017D2522
:1009E0000001776F000E00017E210001786F23EC7B
:1009F00006F0436E000120EE26F07D51D9267E518F
:100A0000DA2243C0DFFF7DC0D9FF7EC0DAFFDF50AE
:100A100070EC07F017D0020E00017D250001776F02
:100A2000000E00017E210001786F4FEC04F070ECA5
:100A300007F0000120EE01F07D51D9267E51DA2227
:100A4000DF0600D0000120EE01F07D51D9267E5155
:100A5000DA22DF50D8A4DFD7000120EE26F07D5146
:100A6000D9267E51DA22DF5070EC07F01200000127
:100A7000796F000120EE20F07751D9267851DA22E3
:100A8000DECF41F0DDCF42F0010E4126000E4222C2
:100A90001F0E411400017A6F00017B6B000120EEF4
:100AA00022F07751D9267851DA2200017A51DE18E6
:100AB00005E100017B51DE18D8B421D0000120EE01
:100AC00020F07751D9267851DA22DECF41F0DDCF00
:100AD00042F0415000017725D96E42500001782143
:100AE000DA6E79C0DFFF000120EE20F07751D926C1
:100AF0007851DA227AC0DEFF7BC0DDFF00D0120021
:100B00003A6E20EE20F03650D9263750DA22DECF6A
:100B100038F0DDCF39F0010E3826000E39221F0ED5
:100B200038143B6E3C6A20EE22F03650D9263750FE
:100B3000DA223B50DE1804E13C50DE18D8B41DD058
:100B400020EE20F03650D9263750DA22DECF38F0AA
:100B5000DDCF39F038503624D96E39503720DA6E6F
:100B60003AC0DFFF20EE20F03650D9263750DA2287
:100B70003BC0DEFF3CC0DDFF00D01200EACF2BF00F
:100B8000E1CF2CF0E2CF2DF0D9CF2EF0DACF2FF03D
:100B9000F3CF30F0F4CF31F0F6CF32F0F7CF33F0BF
:100BA000F8CF34F0F5CF35F035C0F5FF34C0F8FF9D
:100BB00033C0F7FF32C0F6FF31C0F4FF30C0F3FF9F
:100BC0002FC0DAFF2EC0D9FF2DC0E2FF2CC0E1FFFD
:100BD0002BC0EAFF2AC0E9FF29C0FBFF28C0FAFFAB
:100BE00011009DC09FF0010E00019F1700019F3B67
:100BF000BD5000019F19EF0B9F19BD6ED8900001E9
:100C00009E310001A06F00019D3100019F6F010E18
:100C100000019F1700019F3B9F47BD5000019F1996
:100C2000DF0B9F19BD6E9DC09FF09EC0A0F000011C
:100C3000D890A0339F330001D890A0339F33000198
:100C40009F51BE6E1200000E426E000120EE22F097
:100C50007751D9267851DA22DF50416E0FD04150BA
:100C6000010DF35000017725D96EF4500001782171
:100C7000DA6EDF504218426E412A00D0000120EEA9
:100C800020F07751D9267851DA22415000017B6F4C
:100C90007C6BDE5000017B5DDE5000017C59D8A0EA
:100CA000DED7425000D01200000E3D6E20EE22F042
:100CB0003650D9263750DA22DF503C6E0DD03C50EA
:100CC000010DF3503624D96EF4503720DA6EDF5020
:100CD0003D183D6E3C2A00D020EE20F03650D9263B
:100CE0003750DA223C503A6E3B6ADE503A5CDE50B6
:100CF0003B58D8A0E4D73D5000D01200466A456A60
:100D0000446A970EF66E0E0EF76E000EF86E00EE49
:100D1000A8F010EE27F00900F5CFEEFFE550E15006
:100D2000FAE1700EF66E0E0EF76E000EF86E00EE23
:100D300001F010EE27F00900F5CFEEFFE550E1508D
:100D4000FAE1000EF86E0001BEEF02F0000E936EA5
:100D5000959E839E020E7F6E300E6F6E000E6E6E3D
:100D60006B68000E6A6E000E6C6E000E7B6E020EDB
:100D70007A6E280E6D6E030E786E7968030E766EAD
:100D800077687E8E1200020E3E24366E000E3F20E3
:100D9000376E54EC06F0406E20EE26F03E50D92619
:100DA0003F50DA2240C0DFFF20EE26F03E50D92629
:100DB0003F50DA22DF5000D01200000E436E000ECA
:100DC000426E09D00D0E416EFC0EE82EFED7412E6C
:100DD000FCD7424A432A00017751425C0001785116
:100DE0004358D8A0EFD71200020E00017C25000165
:100DF000776F000E00017D210001786F00017E51A8
:100E000037EC05F0000120EE01F07C51D9267D5130
:100E1000DA22DF2A1200416EB850C00BB86E000E05
:100E2000B96E92849286928841C0B6FF77C060FF07
:100E300078C064FF00017951656E000E676E000E88
:100E4000666E12007CC077F07DC078F00001796B8F
:100E50008E0E00017A6F000E00017B6F56EC03F0DE
:100E600077C07CF078C07DF079C07EF000D01200B1
:100E700078000000000000000000000000000000FA
:100E80000000000000000000000000000000000062
:100E900000000000000000820000000000000000D0
:100EA0000000000000000000000000000000000042
:100EB0000000000000000000000000000000020E22
:100EC0003D24366E000E3E20376E3F5080EC05F01C
:100ED00020EE01F03D50D9263E50DA22DF2A1200E2
:100EE000416E00D0ACA2FED7838841C0ADFF00D0D8
:100EF000ACA2FED78398120094847F0ECB6E0C0EAA
:100F0000BD6E000EBE6E050ECA6E120020EE01F020
:100F10003650D9263750DA22DF5000D0120036C0C2
:100F2000D9FF37C0DAFFDF5000D0120077C079FF59
:100F300000017851786E120077C079FF0001785176
:100F4000786E1200958A958C1200AB961200839EE3
:0E0F5000120094841200AB961200AB861200C1
:020000040020DA
:08000000FFFFFFFFFFFFFFFF00
:020000040030CA
:0E000000FFC60C3E3C9981FF0FC00FE00F4081
:00000001FF
