:040000001FEF00F0FE
:04000800B2EF00F063
:10001800D8CF02F0E8CF03F0E0CF04F09EBA9DAA53
:1000280003D0AE50A3EC00F004C0E0FF03C0E8FF2B
:1000380002C0D8FF1000ADEF00F0948C948E959814
:100048008398260EAC6E900EAB6EAA86AA92AA90E2
:1000580012D0040E0E6E100E0CD0020E0E6E080E8C
:1000680008D00E6AAC0E05D00E6A560E02D00E6A83
:100078000A0E0D6E2FD005C009F006C00AF007C0A1
:100088000BF008C00CF00C501FE024D00A50250AD1
:1000980005E06E0A07E0AA0A08E01CD00950800AA9
:1000A800D8E018D00950D9E015D00950DAE012D0BC
:1000B8000A50C20A0FE10950D7E00CD00A50100AC2
:1000C80009E10950D4E006D00B50E0E0010AF0E065
:1000D8000F0AF4E00DC0AFFF0EC0B0FF9F9A9D8AD3
:1000E8001200056A100E066E0E0E076E086A21ECE5
:1000F80000F0D08EF28EF28C066A010E056E8CEC42
:1001080000F0030E066EE80E056E8CEC00F0F9D7D1
:10011800086A096A09D00D0E076EFC0EE82EFED794
:10012800072EFCD7084A092A0550085C0950800A9E
:10013800076E0650800A0758D8B01200ECD7016E37
:10014800ACA2FED7838801C0ADFFACA2FED78398CE
:0E0158001200000EF86E000175EF00F01100AD
:020000040020DA
:08000000FFFFFFFFFFFFFFFF00
:020000040030CA
:0E000000FFC60C3E3C9981FF0FC00FE00F4081
:00000001FF
