:040000009BEF1FF063
:103F1500414243948C948E95988398260EAC6E906E
:103F25000EAB6EAA86AA82AA90560EAF6EB06A1222
:103F350000150EF66E3F0EF76E000EF86E0900F5D1
:103F4500CF0AF00900F5CF0BF00900F5CF0CF00012
:103F550001E0EF1FF0046A056A09D00D0E036EFC3F
:103F65000EE82EFED7032EFCD7044A052A0150047D
:103F75005C0550800A036E0250800A0358D8B012BF
:103F850000ECD7046E056A066A0BD0ACA2FED78397
:103F95008804500524D96EDA6ADF50AD6E054A06ED
:103FA5002A0150055C0650800A036E0250800A0300
:103FB50058ECE3ACA2FED7839812000AC007F00BB9
:103FC500C008F00CC009F0016AC20E026E010E03B2
:103FD5006E046A8CEC1FF0026A010E016EADEC1FD7
:103FE500F0026A030E016E070EC4EC1FF0030E0209
:0C3FF5006EE80E016EADEC1FF0F3D7FF7C
:020000040020DA
:08000000FFFFFFFFFFFFFFFF00
:020000040030CA
:0E000000FFC60C3E3C9981FF0FC00FE00F4081
:00000001FF
