:0400000047EF1FF0B7
:103E8B004142438B0EF66E3E0EF76E000EF86E0936
:103E9B0000F5CF0EF00900F5CF0FF00900F5CF10AC
:103EAB00F0000EF86E00018EEF1FF0046A056A0930
:103EBB00D00D0E036EFC0EE82EFED7032EFCD7049E
:103ECB004A052A0150045C0550800A036E0250809B
:103EDB000A0358D8B01200ECD7046E056A066A0BB9
:103EEB00D0ACA2FED7838804500524D96EDA6ADFE2
:103EFB0050AD6E054A062A0150055C0650800A0338
:103F0B006E0250800A0358ECE3ACA2FED7839812E2
:103F1B00000EC00BF00FC00CF010C00DF0016A10BA
:103F2B000E026E0E0E036E046AAEEC1FF0026A01F7
:103F3B000E016E5BEC1FF0026A030E016E0B0E722C
:103F4B00EC1FF0030E026EE80E016E5BEC1FF0F33C
:103F5B00D7948C948E95988398260EAC6E900EAB5E
:103F6B006EAA86AA82AA9012D0040E0A6E100E0CAC
:103F7B00D0020E0A6E080E08D00A6AAC0E05D00AE3
:103F8B006A560E02D00A6A0A0E096E2FD001C005BE
:103F9B00F002C006F003C007F004C008F008501F81
:103FAB00E024D00650250A05E06E0A07E0AA0A08AD
:103FBB00E01CD00550800AD8E018D00550D9E01588
:103FCB00D00550DAE012D00650C20A0FE10550D7E7
:103FDB00E00CD00650100A09E10550D4E006D007DA
:103FEB0050E0E0010AF0E00F0AF4E009C0AFFF0A6D
:063FFB00C0B0FF1200FF40
:020000040020DA
:08000000FFFFFFFFFFFFFFFF00
:020000040030CA
:0E000000FFC60C3E3C9981FF0FC00FE00F4081
:00000001FF
