:04000000BCEF1FF042
:103F78000001E9EF1FF0016EACA2FED701C0ADFF52
:103F88001200948C948E260EAC6E900EAB6EAA86A0
:103F9800AA82AA90560EAF6EB06A1200046A056A29
:103FA80009D00D0E036EFC0EE82EFED7032EFCD7AB
:103FB800044A052A0150045C0550800A036E025029
:103FC800800A0358D8B01200ECD7016AC20E026EFC
:103FD800010E036E046AC5EC1FF0026A010E016E41
:103FE800D2EC1FF0420EBFEC1FF0030E026EE80E7B
:083FF800016ED2EC1FF0F6D7B8
:020000040020DA
:08000000FFFFFFFFFFFFFFFF00
:020000040030CA
:0E000000FFC60C3E3C9981FF0FC00FE00F4081
:00000001FF
