:0400000031EF00F0EC
:04000800D9EF00F03C
:10001800D8CF02F0E8CF03F0E0CF04F09EBA9DAA53
:1000280015D0AE50C7EC00F004E3590EB5EC00F063
:1000380003D04E0EB5EC00F0BFEC00F004E3590E0F
:10004800B5EC00F003D04E0EB5EC00F004C0E0FFB4
:1000580003C0E8FF02C0D8FF1000CFEF00F0948C77
:10006800948E95988398260EAC6ED00EAB6EAA86A9
:10007800AA92AA9012D0040E0E6E100E0CD0020E88
:100088000E6E080E08D00E6AAC0E05D00E6A560E1B
:1000980002D00E6A0A0E0D6E2FD005C009F006C0F8
:1000A8000AF007C00BF008C00CF00C501FE024D079
:1000B8000A50250A05E06E0A07E0AA0A08E01CD0E3
:1000C8000950800AD8E018D00950D9E015D0095055
:1000D800DAE012D00A50C20A0FE10950D7E00CD07A
:1000E8000A50100A09E10950D4E006D00B50E0E0AC
:1000F800010AF0E00F0AF4E00DC0AFFF0EC0B0FF38
:100108009F9A9D8A1200056A100E066E0E0E076EE3
:10011800086A33EC00F0D7EC00F0D4EC00F0D08E95
:10012800F28EF28C066A010E056EA2EC00F0030E48
:10013800066EE80E056EA2EC00F0F9D7086A096AA7
:1001480009D00D0E076EFC0EE82EFED7072EFCD741
:10015800084A092A0550085C06500958D8B0120008
:10016800F0D7016EACA2FED7838801C0ADFFACA268
:10017800FED78398120083AC03D0016A012A01D00C
:10018800016A0130120083AA03D0016A012A01D052
:10019800016A01301200000EF86E000187EF00F0CE
:0C01A800958A958C1200AB961200110095
:020000040020DA
:08000000FFFFFFFFFFFFFFFF00
:020000040030CA
:0E000000FFC60C3E3C9981FF0FC00FE00F4081
:00000001FF
